S0120000616C746574615F6173322E7372656332
S11300000C9497000C94B4000C94B4000C94B400B9
S11300100C94B4000C94B4000C94B4000C94B4008C
S11300200C94B4000C94B4000C94B4000C94B4007C
S11300300C94B4000C94B4000C94B4000C94B4006C
S11300400C94B4000C9401060C94E5040C94B400D4
S11300500C94B4000C94B4000C94B4000C94B4004C
S11300600C94B4000C94B40011026B026B026B028A
S11300706B026B026B026B026B026B026B026B0214
S113008023026B026B026B0208026B026B026B02AF
S11300906B026B026B026B026B026B026B026B02F4
S11300A01A026B026B026B022C026B026B026B0274
S11300B06B026B026B026B026B026B026B026B02D4
S11300C06B026B026B026B0235026B026B023E0227
S11300D06B026B026B026B026B026B0247026B02D8
S11300E06B02FF016B026B026B026B026B026B0211
S11300F06B026B026B026B026B026B026B026B0294
S113010050026B026B026B0259026B026B026B02B0
S11301106B026B026B026B026B026B026B026B0273
S113012062026364696E6F70737578585B001124A2
S11301301FBECFEFD8E0DEBFCDBF13E0A0E0B1E03B
S1130140E2E3FDE102C005900D92AC3DB107D9F7A1
S113015025E0ACEDB3E001C01D92A03BB207E1F78E
S11301600E9425050C94970E0C9400000E94DD0556
S11301700895EF92FF920F931F93CF93DF938EE036
S113018091E09F938F930E94C1080F900F908091EC
S1130190520490915304892BA1F42CC08889998925
S11301A0892B41F1DF93CF931F930F930E94C108D2
S11301B062960F900F900F900F90CE15DF0571F798
S11301C019C082E494E09F938F938FE191E09F9311
S11301D08F930E94C108C4E5D4E00F2EFAEAEF2EF3
S11301E0F5E0FF2EF02D0F900F900F900F900FE180
S11301F011E0D4CFDF91CF911F910F91FF90EF9039
S113020008950F931F93CF93DF9300D0CDB7DEB73C
S113021080912E0490912F04009749F484E291E098
S11302209F938F930E94C1080F900F901DC00E944E
S113023023088C01AE014F5F5F4F62E00E946705A7
S11302408A811F928F9389811F928F9311271F9305
S11302500F9381E491E09F938F930E94C1080FB69E
S1130260F894DEBF0FBECDBF0F900F90DF91CF91FA
S11302701F910F9108951F93CF93DF9300D000D067
S1130280CDB7DEB780912E0490912F04009749F4E6
S113029084E291E09F938F930E94C1080F900F9086
S11302A030C00E942308182F8091300490913104AB
S11302B0009749F484E291E09F938F930E94C108D0
S11302C00F900F901EC09E012F5F3F4F3F932F93BF
S11302D028E631E03F932F939F938F930E94D70892
S11302E089819A819B838C83AE014D5F5F4F62E06D
S11302F0812F0E9494050F900F900F900F900F90F4
S11303000F900F900F900F900F90DF91CF911F914E
S1130310089580912E0490912F04009749F484E26B
S113032091E09F938F930E94C1080F900F900895BE
S11303300E9423080E94C0050895CF92DF92EF9295
S1130340FF920F931F93CF93DF9300D0CDB7DEB707
S1130350AE014F5F5F4F62E080E00E9467059093BB
S1130360ED038093EC030F2EFCEEEF2EF3E0FF2E53
S1130370F02DF701008111811F930F938DE691E019
S11303809F938F930E94C1080F2EFDEECF2EF3E0B2
S1130390DF2EF02DF601808183FB882780F91F92E0
S11303A08F9384E891E09F938F930E94C108F60194
S11303B0808181701F928F9381EA91E09F938F9344
S11303C00E94C108F701808186951F928F938EEB5E
S11303D091E09F938F930E94C1080FB6F894DEBFFB
S11303E00FBECDBFF801FF27F695E7953397ED359E
S11303F0F10508F070C0EC5CFF4F0C941D0889ED0A
S113040091E09F938F930E94C1080F900F906BC04F
S113041083EE91E09F938F930E94C1080F900F90F9
S113042062C08DEE91E09F938F930E94C1080F905C
S11304300F9059C085EF91E09F938F930E94C1085C
S11304400F900F9050C080E092E09F938F930E9492
S1130450C1080F900F9047C087E092E09F938F935D
S11304600E94C1080F900F903EC085E192E09F93D7
S11304708F930E94C1080F900F9035C08AE192E0DB
S11304809F938F930E94C1080F900F902CC082E21B
S113049092E09F938F930E94C1080F900F9023C006
S11304A08DE292E09F938F930E94C1080F900F906A
S11304B01AC085E392E09F938F930E94C1080F9026
S11304C00F9011C082E492E09F938F930E94C10821
S11304D00F900F9008C087E492E09F938F930E943F
S11304E0C1080F900F900DEE13E0F80180818695FE
S11304F081701F928F9381E592E09F938F930E9466
S1130500C108F801808182FB882780F91F928F93AC
S113051081E792E09F938F930E94C1088091EC033E
S113052081701F928F9380E992E09F938F930E9432
S1130530C1080FB6F894DEBF0FBECDBF0F900F9069
S1130540DF91CF911F910F91FF90EF90DF90CF90AB
S113055008950F931F93CF93DF931F92CDB7DEB708
S113056082E60E94C005AE014F5F5F4F61E081ECFF
S11305700E9467050FEF1FEE13C0AE014F5F5F4F80
S113058061E081EC0E9467050150110949F488EA91
S113059092E09F938F930E94C1080F900F9006C022
S11305A089818E7F863049F70E949D010F90DF91EB
S11305B0CF911F910F91089583E60E94C0050E9478
S11305C09D0108950F931F93CF93DF931F92CDB78F
S11305D0DEB786E60E94C005AE014F5F5F4F61E063
S11305E081EC0E9467050FEF1FEE13C0AE014F5F51
S11305F05F4F61E081EC0E9467050150110949F4E5
S113060088EA92E09F938F930E94C1080F900F9005
S113061006C089818E7F8E3149F70E949D010F901B
S1130620DF91CF911F910F9108950F931F93CF9353
S1130630DF931F92CDB7DEB785E60E94C005AE01F9
S11306404F5F5F4F61E081EC0E9467050FEF1FEE83
S113065013C0AE014F5F5F4F61E081EC0E946705FC
S11306600150110949F488EA92E09F938F930E9404
S1130670C1080F900F9006C089818E7F8E3149F793
S11306800E949D010F90DF91CF911F910F910895CA
S113069084E60E94C0050E949D010895459A08952C
S11306A04598089580E70E94C0050E949D01089521
S11306B01F93CF93DF9300D000D000D0CDB7DEB727
S11306C080E70E94C0058AEC8983AE014F5F5F4FCB
S11306D061E082EB0E94940584E08983AE014F5F60
S11306E05F4F61E088EA0E949405AE014F5F5F4F5F
S11306F061E088EA0E9467051982AE014F5F5F4F8F
S113070061E088EA0E94940581E3898386E08A8314
S113071082E48B8386E78C8381E28D8311E01E83E0
S1130720AE014F5F5F4F66E087E00E94940587E16A
S11307308983AE014F5F5F4F61E080E10E949405C1
S113074088EC8983AE014F5F5F4F61E08EE10E94C8
S1130750940582E68983AE014F5F5F4F61E085E2D5
S11307600E94940585E18983AE014F5F5F4F61E08C
S113077087E20E9494058FE3898380E38A83AE0134
S11307804F5F5F4F62E082E30E94940581E48983B6
S113079080E48A831B83AE014F5F5F4F63E08FE485
S11307A00E94940519821A82AE014F5F5F4F62E086
S11307B08EE60E94940580EA8983AE014F5F5F4F05
S11307C061E08FE90E94940585E28983AE014F5F61
S11307D05F4F61E081EA0E94940585E38983AE015D
S11307E04F5F5F4F61E083EA0E94940582E2898350
S11307F0AE014F5F5F4F61E08CEB0E94940526963B
S11308000FB6F894DEBF0FBECDBFDF91CF911F911D
S11308100895CF93DF93CDB7DEB727970FB6F8943B
S1130820DEBF0FBECDBFAE014F5F5F4F61E08EE90B
S11308300E946705898180688983AE014F5F5F4F9D
S113084061E08EE90E9494058CE0898384E88A83C0
S11308508CEE8B8381E48C83AE014F5F5F4F64E049
S113086088E00E94940585E28983AE014F5F5F4F63
S113087061E081EA0E949405AE014F5F5F4F61E041
S113088080E50E946705898182608983AE014F5F9C
S11308905F4F61E080E50E94940586E60E94C005F2
S11308A0AE01495F5F4F61E081EC0E9467058F8173
S11308B08E7F8E31A9F7AE014B5F5F4F61E085EE0D
S11308C00E94670582E60E94C005AE01495F5F4F42
S11308D061E081EC0E9467058F818E7F8630A9F7E5
S11308E085E60E94C005AE01495F5F4F61E081EC7F
S11308F00E9467058F818E7F8E31A9F7AE014A5F12
S11309005F4F61E085EE0E94670582E60E94C005A4
S1130910AE01495F5F4F61E081EC0E9467058F8102
S11309208E7F8630A9F7AE014F5F5F4F61E080E5AF
S11309300E94670589818D7F8983AE014F5F5F4F78
S113094061E080E50E949405AE014F5F5F4F61E076
S11309508EE90E94670589818F778983AE014F5F95
S11309605F4F61E08EE90E94940586E0898382E40A
S11309708A8386E78B8381E28C83AE014F5F5F4F6E
S113098064E088E00E949405AE014B5F5F4F62E033
S11309908EE60E94940527960FB6F894DEBF0FBE2C
S11309A0CDBFDF91CF91089587EB92E09F938F9312
S11309B00E94C1088BEE92E09F938F930E94C1081E
S11309C00F900F900F900F9008951F920F920FB6F3
S11309D00F9211242F933F934F935F936F937F93C1
S11309E08F939F93AF93BF93EF93FF938091C60030
S11309F00E944407FF91EF91BF91AF919F918F9116
S1130A007F916F915F914F913F912F910F900FBE06
S1130A100F901F9018958EBD0DB407FEFDCF8DB5B8
S1130A2080688DBD8EB5089584E084B92A9A259A8C
S1130A30239A2498E4E6F0E080818B7F808381E52B
S1130A408CBD8DB580688DBD0895F89480E091E0EB
S1130A509093AD058093AC050E94B6000E94D40427
S1130A603D9A459AC0E0D1E02197F1F745980E945C
S1130A70140578942A9A2A9881E00E940B0580E054
S1130A800E940B058AEA0E940B058AEA0E940B0564
S1130A902A9A2A9A2A9881E00E940B0580E00E94F3
S1130AA00B058AEA0E940B058AEA0E940B052A9A22
S1130AB00E941E07CE010197F1F72091EB0320FF5E
S1130AC003C00E946207F6CF0197F1F7F3CFEF92CC
S1130AD0FF920F931F93CF93DF93D82FC62F8A01D2
S1130AE02A9881E00E940B05E82E8D2F0E940B05A9
S1130AF0F12CFE2CEE24E82A6C2F70E061157105B0
S1130B0051F0E801060F171F85E50E940B05899334
S1130B10C017D107C9F72A9AC701DF91CF911F9156
S1130B200F91FF90EF900895EF92FF920F931F9310
S1130B30CF93DF93D82FC62F8A012A9880E00E9492
S1130B400B05E82E8D2F0E940B05F12CFE2CEE24B4
S1130B50E82A6C2F70E06115710549F0E801060F71
S1130B60171F89910E940B05C017D107D1F72A9A44
S1130B70C701DF91CF911F910F91FF90EF900895DE
S1130B80CF93DF93D82F2A9880E80E940B05C82FB3
S1130B908D2F0E940B052A9A2C2F30E0322F22270A
S1130BA0A901482BCA01DF91CF9108955098589814
S1130BB0519A59980E94570608958FEE80936400C5
S1130BC084B114B885B19FEF95B987B1807887B99E
S1130BD088B18F6788B98AB11AB88BB19BB940E0E4
S1130BE060E881E690E00E94FA0513BE15BE0E94FB
S1130BF0D60508952FB7F894FC01608340832FBF76
S1130C0008951F920F920FB60F9211242F933F93C2
S1130C104F935F936F937F938F939F93AF93BF9300
S1130C20CF93DF93EF93FF939EB58091E2038230DD
S1130C3011F1CEEDD3E0A981BA81FD019193FA833C
S1130C40E983813019F011969C9101C090E0EEED9A
S1130C50F3E0838181508383882311F09EBD14C007
S1130C60EEEDF3E083E080830580F681E02D30979C
S1130C7059F0099509C0EEEDF3E0A181B281CD01EF
S1130C80019692838183DFCFFF91EF91DF91CF9122
S1130C90BF91AF919F918F917F916F915F914F9190
S1130CA03F912F910F900FBE0F901F901895E4E67F
S1130CB0F0E080818D7F80831092C50080E1809375
S1130CC0C40082E08093C00088E98093C10080E082
S1130CD00895E0ECF0E0908195FFFDCF8093C6008D
S1130CE00895EF92FF920F931F93CF93DF937B01AD
S1130CF0C091E503D091E603C431D1054CF08FE1F6
S1130D0093E09F938F930E94C1080F900F901AC095
S1130D108E01000F111F9801220F331F220F331F62
S1130D20220F331F020F131F0E5B1B4FBC01C801A0
S1130D300E944F08F801F18AE08A2196D093E603D5
S1130D40C093E503DF91CF911F910F91FF90EF9036
S1130D500895CF93DF93C2E4D4E02AEA35E080E13A
S1130D60EDE3F3E0DE0101900D928A95E1F7198A33
S1130D70188A6296C217D30791F71092E60310926D
S1130D80E50369EB70E08DE493E00E94710661E095
S1130D9071E082E593E00E9471066BE371E087E500
S1130DA093E00E94710669E871E08BE593E00E948C
S1130DB071066DE971E08FE593E00E9471066CEDB8
S1130DC072E085E693E00E94710669EA72E08DE6BE
S1130DD093E00E94710662EE72E083E793E00E9462
S1130DE0710665E173E08AE793E00E94710668E4A6
S1130DF073E081E893E00E9471066EE473E087E893
S1130E0093E00E94710660E573E08FE893E00E942E
S1130E10710662E573E086E993E00E94710668E575
S1130E2073E08CE993E00E94710669E074E081EA62
S1130E3093E00E947106DF91CF91089584E1EEE280
S1130E40F4E0DF011D928A95E9F71092E80310920D
S1130E50E70380E4EEEEF3E0DF011D928A95E9F703
S1130E601092EA031092E9038091EB038E7F809342
S1130E70EB030E94A90685EA93E09F938F930E9457
S1130E80C1080F900F9008952091E9033091EA036F
S1130E90F901E251FC4F80832F5F3F4F3093EA0307
S1130EA02093E9038D3041F06091AC057091AD055C
S1130EB090E00E94850808958091EB0381608093FF
S1130EC0EB030895EF92FF920F931F93CF93DF9359
S1130ED0E091E903F091EA03E351FC4F10826BE4E3
S1130EE073E08EEE93E00E944108EC01009709F054
S1130EF08CC060E070E08EEE93E00E944108EC014B
S1130F00FC0101900020E9F7CF018C1B9D0B69EADD
S1130F1073E082519C4F0E944108009701F1209197
S1130F20E7033091E803F901EE0FFF1FE25DFB4F89
S1130F30918380832F5F3F4F3093E8032093E7032F
S1130F4069EA73E080E090E00E9441082091E703A1
S1130F503091E8032A30310514F4009701F7209703
S1130F6009F044C08091E9039091EA030297D8F113
S1130F708BEA93E09F938F930E94C1080F900F9088
S1130F8032C0B701CE010E944608892BB1F4F801A2
S1130F90EE0FFF1FCF01880F991F880F991F880F2D
S1130FA0991FE80FF91FEE5BFB4F0088F189E02DD4
S1130FB0099504311105B9F408C00F5F1F4F82E190
S1130FC0E80EF11C04311105E1F68EEE93E09F93D7
S1130FD08F938FEB93E09F938F930E94C1080F90A0
S1130FE00F900F900F900E941E0720C08091E9037C
S1130FF09091EA030297B8F30F2EF2E4EF2EF4E097
S1131000FF2EF02D00E010E0BCCFFC010190002089
S1131010E9F7CF018C1B9D0B69EA73E082519C4F69
S11310200E944108009709F07ACFE0CFDF91CF9179
S11310301F910F91FF90EF900895EE0FFF1F059001
S1131040F491E02D0994FC0188279927E8942191D3
S11310502032E9F3293010F02E30C8F32B3241F05E
S11310602D3239F4689404C00E947D08820F911DCA
S1131070219120532A30C0F31EF4909581959F4FFF
S113108008954CED53E00E9456080895FB01DC01DD
S11310908D91019080190110D9F3990B0895FB01EA
S11310A0DC0101900D920020E1F70895FA01A1916D
S11310B0B081009719F41097E1F0CD01DC01CD0166
S11310C00D90002011F4C00113C0FB0121912223D3
S11310D019F02015D9F7F3CFFB012191201519F44C
S11310E01E92119606C02223C1F70D900020A1F78D
S11310F0D001FA01A193B08308957AE0979F902DCF
S1131100879F802D910D112408950F931F93CF93E2
S1131110DF93FB01238121FD03C08FEF9FEF2CC0E0
S113112022FF16C046815781248135814217530717
S113113044F4A081B1819D012F5F3F4F318320830F
S11311408C93268137812F5F3F4F3783268314C0CA
S11311508B01EC01FB010084F185E02D0995892BBD
S1131160E1F6D80116968D919C91179701961796E2
S11311709C938E931697CE01DF91CF911F910F917F
S11311800895A0E0B0E0E7ECF8E00C94700EAE0136
S11311904B5F5F4FFA0161917191AF018091AC0592
S11311A09091AD050E94F008E2E00C948C0EAEE044
S11311B0B0E0EDEDF8E00C94700E85E08C838B8943
S11311C09C899A838983AE01495E5F4F6D897E89CC
S11311D0CE0101960E946D0C2E96E2E00C948C0ECA
S11311E0ABE0B0E0E6EFF8E00C94600E6C017B013C
S11311F08A01FC0117821682838181FFCCC1CE0152
S113120001963C01F6019381F70193FD859193FFCB
S113121081917F01882309F4BAC1853239F493FDA1
S1131220859193FF81917F01853229F4B60190E085
S11312300E948508E7CF912C212C312CFFE1F31576
S1131240D8F08B3279F038F4803279F08332A1F41B
S1131250232D20611DC08D3261F0803369F4232D6C
S1131260216016C0832D8260382EE32DE4603E2E6B
S11312702AC0F32DF8601DC037FC2DC020ED280FC7
S11312802A3040F08E32B9F436FC81C1232D20641B
S1131290322E19C036FE06C08AE0989E200D112415
S11312A0922E11C0EAE02E9E200D1124222EF32D41
S11312B0F0623F2E08C08C3621F4832D8068382ECE
S11312C002C0883641F4F70193FD859193FF819123
S11312D07F018111B3CF982F9F7D9554933028F4CB
S11312E00C5F1F4F9FE399830DC0833631F0833722
S11312F071F0833509F059C021C0F80180818983D8
S11313000E5F1F4F88248394912C530113C028012E
S1131310F2E04F0E511CF801A080B18036FE03C0EC
S1131320692D70E002C06FEF7FEFC5010E949D0D33
S11313304C018201F32DFF773F2E16C0280122E0D5
S1131340420E511CF801A080B18036FE03C0692D05
S113135070E002C06FEF7FEFC5010E94920D4C0157
S1131360F32DF0683F2E820133FC1BC0822D90E0E8
S113137088169906B0F4B60180E290E00E948508D0
S11313802A94F4CFF50137FC859137FE81915F01F2
S1131390B60190E00E94850821102A9421E0821A67
S11313A091088114910471F7E8C0843611F08936EC
S11313B041F5F80137FE07C0608171818281938114
S11313C00C5F1F4F08C060817181072E000C880BD1
S11313D0990B0E5F1F4FF32DFF763F2E97FF09C029
S11313E090958095709561957F4F8F4F9F4FF068D2
S11313F03F2E2AE030E0A3010E94FF0D882E8618BC
S113140045C0853731F4232D2F7EB22E2AE030E0FB
S113141025C0932D997FB92E8F36C1F018F48835E5
S113142079F0B5C0803719F0883721F0B0C0E92FC2
S1131430E061BE2EB4FE0DC0FB2DF460BF2E09C0CA
S113144034FE0AC0292F2660B22E06C028E030E000
S113145005C020E130E002C020E132E0F801B7FE2F
S113146007C060817181828193810C5F1F4F06C028
S11314706081718180E090E00E5F1F4FA3010E94A4
S1131480FF0D882E8618FB2DFF773F2E36FE0DC0EC
S1131490232D2E7FA22E891458F434FE0BC032FC67
S11314A009C0832D8E7EA82E05C0B82CA32C03C0A2
S11314B0B82C01C0B92CA4FE0FC0FE01E80DF11D2B
S11314C08081803321F49A2D997EA92E09C0A2FE31
S11314D006C0B394B39404C08A2D867809F0B394FB
S11314E0A3FC11C0A0FE06C0B21488F4280C922CF0
S11314F09B180EC0B21460F4B60180E290E00E9422
S11315008508B394F7CFB21418F42B1802C0982CA2
S1131510212CA4FE10C0B60180E390E00E9485084F
S1131520A2FE17C0A1FC03C088E790E002C088E5D2
S113153090E0B6010CC08A2D867859F0A1FE02C055
S11315408BE201C080E2A7FC8DE2B60190E00E942C
S11315508508891438F4B60180E390E00E94850878
S11315609A94F7CF8A94F301E80DF11D8081B601B6
S113157090E00E9485088110F5CF222009F442CE24
S1131580B60180E290E00E9485082A94F6CFF60125
S11315908681978102C08FEF9FEF2B96E2E10C9436
S11315A07C0E20FD09C0FC0123FD05C022FF02C002
S11315B07383628351834083089544FD17C046FDBD
S11315C017C0AB01BC01DA01FB01AA0FBB1FEE1F60
S11315D0FF1F1094D1F74A0F5B1F6E1F7F1FCB01B3
S11315E0BA01660F771F881F991F09C033E001C035
S11315F034E0660F771F881F991F3150D1F7620FAF
S1131600711D811D911D08950F931F93CF93DF9337
S11316108C01C8010E94A80DEC0197FD08C00E942E
S11316207E0D892BB1F7B801CE010E94E60DCE01E3
S1131630DF91CF911F910F9108958F929F92AF9256
S1131640BF92EF92FF920F931F93CF93DF938C017E
S1131650D62F7A01B22E0E94A80D9C0133272B327B
S1131660310531F02D32310561F48B2D8068B82EAF
S1131670D15011F480E068C0C8010E94A80D97FD04
S1131680F9CFCB2DCD7F2B2D207309F58033F9F4C1
S1131690AA24AA94AD0E09F443C0C8010E94A80D5F
S11316A097FD3EC09C012F7D33272835310549F431
S11316B0C264D250A9F1C8010E94A80D97FF07C0C7
S11316C02FC0B6FE02C0C26001C0C261DA2D812CF7
S11316D0912C540120ED280F283080F0C4FF04C061
S11316E0B8010E94E60D19C02A3040F0C6FFF8CFB9
S11316F02F7D3FEE320F363098F727504C2FC5011F
S1131700B4010E94DD0A4B015C01C260D15059F062
S1131710C8010E94A80D97FFDDCFC1FD04C0AACF68
S1131720812C912C5401C7FF08C0B094A0949094CC
S11317308094811C911CA11CB11C2C2FB501A40107
S1131740C7010E94D10A81E0DF91CF911F910F91CF
S1131750FF90EF90BF90AF909F908F900895A0E27C
S1131760B0E0E5EBFBE00C94630E5C01962E7A018D
S1131770F9018E010F5F1F4F680180E2D8011D92AD
S11317808A95E9F7D50113968C9080E090E0612C5E
S1131790712C30E061E070E083FC259183FE21919F
S11317A08F01522E211103C080E090E092C02E35AB
S11317B011F4009751F1432F50E0481759073CF4B6
S11317C02D3559F12D3219F4772009F103C0772012
S11317D009F46AC0452D469546954695D601A40F51
S11317E0B11D452D47708B0102C0000F111F4A9592
S11317F0E2F7A8015C91452B4C93651459F05614FB
S113180010F45394E7CF5A94E5CF31E004C0772421
S1131810739401C0712C0196BFCF772019F08E818B
S113182080628E83311103C08824839417C0F6012B
S11318309E012F5D3F4F8081809581932E173F0736
S1131840D1F7F2CFE114F10429F0D7018C93F70119
S113185031967F019A94812C9920F9F0C5010E9458
S1131860A80D97FD18C0FC01FF2723E0F595E79527
S11318702A95E1F7EC0DFD1D208130E0AC014770A5
S1131880552702C0359527954A95E2F720FDDACF12
S1131890B5010E94E60D811087CFE114F10411F027
S11318A0D7011C92C80115C0422F4695469546950E
S11318B0D601A40FB11D422F47708B0102C0000F47
S11318C0111F4A95E2F7A8015C91452B4C93622EB7
S11318D0A2CFA096EFE00C947F0EA0E0B0E0E3E787
S11318E0FCE00C94630E6C01EB015A01FC011782BD
S11318F01682512CF601E380FE01E3FC8591E3FEA0
S11319008191182FEF01882309F4EEC090E00E9422
S11319107E0D892B21F0C6010E94040BEBCF1532FA
S113192041F4FE01E3FC1591E3FE1191EF01153240
S113193081F4C6010E94A80D97FDD4C0412F50E048
S11319409C01332724173507A9F2B6010E94E60D3E
S1131950CBC01A3239F4E3FC1591E3FE1191EF0187
S113196001E001C000E0F12C20ED210F2A3080F4C9
S113197002606F2D70E080E090E040E20E94DD0A9A
S1131980F62EFE01E3FC1591E3FE1191EF01ECCF7D
S113199001FF03C0F11003C0A7C0FF24FA94183656
S11319A019F01C3651F010C0FE01E3FC1591E3FE62
S11319B01191EF01183641F408600460FE01E3FC64
S11319C01591E3FE1191EF01112309F48DC0612FEC
S11319D070E082E291E00E94870D892B09F484C0B3
S11319E000FD07C0F50180809180C50102965C016D
S11319F002C0812C912C1E3651F4F6014681578188
S1131A0060E070E0202FC4010E94D10A73CF133626
S1131A10A9F401FD02C0FF24F394C6010E94A80D9D
S1131A2097FD60C08114910429F0F4018083C401FE
S1131A3001964C01FA94F110F0CF50C01B3559F4C3
S1131A409E01A4016F2DC6010E94AF0BEC01892BEE
S1131A5009F044C03EC0C6010E94040B97FD42C079
S1131A601F3661F128F4143639F1193651F128C0C2
S1131A70133771F0153701F123C08114910429F053
S1131A80F4016082C40101964C01FA94FF2071F0C4
S1131A90C6010E94A80D3C0197FD08C00E947E0D5E
S1131AA0892B59F3B601C3010E94E60D81149104F8
S1131AB0A9F0F401108212C0006203C0006101C0E9
S1131AC00064202FA4016F2DC6010E941D0B8111FB
S1131AD005C0F6018381807329F406C000FD0ACF96
S1131AE0539408CF552019F0852D90E002C08FEF54
S1131AF09FEFCDB7DEB7EFE00C947F0E91110C94FD
S1131B005D0E803219F089508550C8F70895FC01A4
S1131B100590061621F00020D9F7C00108953197E9
S1131B20CF010895FC010590615070400110D8F771
S1131B30809590958E0F9F1F0895FC016150704011
S1131B4001900110D8F7809590958E0F9F1F0895EE
S1131B50CF93DF93EC012B8120FF33C026FF0AC013
S1131B602F7B2B838E819F8101969F838E838A8115
S1131B7090E029C022FF0FC0E881F9818081082EFE
S1131B80000C990B009719F420622B831AC031962C
S1131B90F983E8830EC0EA85FB85099597FF09C0A0
S1131BA02B81019611F080E201C080E1822B8B83AE
S1131BB008C02E813F812F5F3F4F3F832E8399279B
S1131BC002C08FEF9FEFDF91CF910895FB01238136
S1131BD020FF12C026FD10C08F3F3FEF930761F036
S1131BE082832F7D2064238326813781215031090C
S1131BF037832683992708958FEF9FEF0895FA017D
S1131C00AA27283051F1203181F1E8946F936E7F37
S1131C106E5F7F4F8F4F9F4FAF4FB1E03ED0B4E028
S1131C203CD0670F781F891F9A1FA11D680F791F69
S1131C308A1F911DA11D6A0F711D811D911DA11D7A
S1131C4020D009F468943F912AE0269F112430198A
S1131C50305D3193DEF6CF010895462F4770405D25
S1131C604193B3E00FD0C9F7F6CF462F4F70405DD4
S1131C704A3318F0495D31FD4052419302D0A9F72F
S1131C80EACFB4E0A6959795879577956795BA9529
S1131C90C9F700976105710508959B01AC010A2EEF
S1131CA006945795479537952795BA95C9F7620FC6
S1131CB0731F841F951FA01D0895992788270895D1
S1131CC02F923F924F925F926F927F928F929F9248
S1131CD0AF92BF92CF92DF92EF92FF920F931F9336
S1131CE0CF93DF93CDB7DEB7CA1BDB0B0FB6F894E7
S1131CF0DEBF0FBECDBF09942A88398848885F8427
S1131D006E847D848C849B84AA84B984C884DF8097
S1131D10EE80FD800C811B81AA81B981CE0FD11D7B
S1131D200FB6F894DEBF0FBECDBFED010895F89451
S1051D30FFCFDF
S1131D3200000002000000006906000000000D0A15
S1131D42636F6D6D616E6473206C6973743A000D18
S1131D520A2573000D0A2D455252206261642063E4
S1131D626F6D6D616E6420617267756D656E74214D
S1131D72000D0A2D52455320737069726974312023
S1131D82726567205B25303258685D203D2025301E
S1131D92325825303258680025303478000D0A2D27
S1131DA24920675F78537461747573203D20253030
S1131DB2345868000D0A675F785374617475732E22
S1131DC2414E545F53454C4543543D253032586887
S1131DD2000D0A675F785374617475732E4552520D
S1131DE24F525F4C4F434B3D2530325868000D0A29
S1131DF2675F785374617475732E4D435F53544116
S1131E0254453D2530325868003C5354414E4442B7
S1131E12593E003C4C4F434B574F4E3E003C5245BB
S1131E224144593E003C50524F544F434F4C3E00A4
S1131E323C4C4F434B3E003C584F5F534554544C2B
S1131E42494E473E003C52583E003C534C45455097
S1131E523E003C504D5F53455455503E003C53594F
S1131E624E54483E003C53594E545F5345545550CA
S1131E723E003C54583E003C554E4B4E4F574E3E4E
S1131E82000D0A675F785374617475732E52585F3C
S1131E924649464F5F454D5054593D2530325868A6
S1131EA2000D0A675F785374617475732E54585F1A
S1131EB24649464F5F46554C4C3D253032586800E2
S1131EC20D0A675F785374617475732E584F5F4FB0
S1131ED24E3D2530325868000D0A2D455252207469
S1131EE2696D656F7574000D0A414C544554412D5A
S1131EF24153322067656E65726174696F6E20703A
S1131F02726F6A65637420666F7220535049524936
S1131F12543120762E312E303031000D0A2D2D2DE4
S1131F222D2D2D2D2D2D2D2D2D2D2D2D2D2D2D2DDB
S1131F322D2D2D2D2D2D2D2D2D2D2D2D2D2D2D2DCB
S1131F422D2D2D2D2D2D2D2D2D2D2D2D2D2D000D08
S1131F520A2D45525220636F6D6D616E64206C6967
S1131F627374206F766572666C6F7721002020206F
S1131F722020202020202020202020200068656CA2
S1131F8270007265673F0072656700636D64007379
S1131F927461743F007374616E6462790072656186
S1131FA26479006C6F636B7478006C6F636B727826
S1131FB200736C6565700064697361626C650065C9
S1131FC26E61626C6500726573657400636F6E6640
S1131FD20063616C000D0A3E002C000D0A2D45526F
S1131FE2522062616420636F6D6D616E6421000D25
S1131FF20A2D45525220756E6B6E6F776E20636F99
S10F20026D616E64205B25735D2100009D
S9030000FC
